{
  "address": "0x3eD5E8ffc30Fa6e17Cb9b021865B9a61b8ec2169",
  "abi": [
    {
      "inputs": [
        {
          "internalType": "address",
          "name": "_supportedAsset",
          "type": "address"
        }
      ],
      "stateMutability": "nonpayable",
      "type": "constructor"
    },
    {
      "inputs": [
        {
          "internalType": "address",
          "name": "",
          "type": "address"
        }
      ],
      "name": "AssetIsSupported",
      "type": "error"
    },
    {
      "inputs": [
        {
          "internalType": "address",
          "name": "",
          "type": "address"
        }
      ],
      "name": "ContractAddressNotAllowed",
      "type": "error"
    },
    {
      "inputs": [
        {
          "internalType": "uint256",
          "name": "balThis",
          "type": "uint256"
        },
        {
          "internalType": "uint256",
          "name": "balToRec",
          "type": "uint256"
        }
      ],
      "name": "InsufficientLiquidyInContract",
      "type": "error"
    },
    {
      "inputs": [
        {
          "internalType": "address",
          "name": "",
          "type": "address"
        }
      ],
      "name": "UnSupportedAsset",
      "type": "error"
    },
    {
      "anonymous": false,
      "inputs": [
        {
          "indexed": true,
          "internalType": "address",
          "name": "previousOwner",
          "type": "address"
        },
        {
          "indexed": true,
          "internalType": "address",
          "name": "newOwner",
          "type": "address"
        }
      ],
      "name": "OwnershipTransferred",
      "type": "event"
    },
    {
      "inputs": [],
      "name": "addLiquidity",
      "outputs": [],
      "stateMutability": "payable",
      "type": "function"
    },
    {
      "inputs": [],
      "name": "getData",
      "outputs": [
        {
          "internalType": "uint256",
          "name": "_totalLiquidity",
          "type": "uint256"
        },
        {
          "internalType": "uint256",
          "name": "_swapfee",
          "type": "uint256"
        },
        {
          "internalType": "uint256",
          "name": "_totalFeeReceived",
          "type": "uint256"
        },
        {
          "internalType": "uint256",
          "name": "_totalProvider",
          "type": "uint256"
        },
        {
          "components": [
            {
              "internalType": "uint256",
              "name": "amount",
              "type": "uint256"
            },
            {
              "internalType": "uint256",
              "name": "timeProvided",
              "type": "uint256"
            },
            {
              "internalType": "uint256",
              "name": "position",
              "type": "uint256"
            },
            {
              "internalType": "bool",
              "name": "isExist",
              "type": "bool"
            }
          ],
          "internalType": "struct SwapLab.Provider",
          "name": "_provider",
          "type": "tuple"
        }
      ],
      "stateMutability": "view",
      "type": "function"
    },
    {
      "inputs": [
        {
          "internalType": "address",
          "name": "",
          "type": "address"
        }
      ],
      "name": "liqProviders",
      "outputs": [
        {
          "internalType": "uint256",
          "name": "amount",
          "type": "uint256"
        },
        {
          "internalType": "uint256",
          "name": "timeProvided",
          "type": "uint256"
        },
        {
          "internalType": "uint256",
          "name": "position",
          "type": "uint256"
        },
        {
          "internalType": "bool",
          "name": "isExist",
          "type": "bool"
        }
      ],
      "stateMutability": "view",
      "type": "function"
    },
    {
      "inputs": [],
      "name": "owner",
      "outputs": [
        {
          "internalType": "address",
          "name": "",
          "type": "address"
        }
      ],
      "stateMutability": "view",
      "type": "function"
    },
    {
      "inputs": [
        {
          "internalType": "uint256",
          "name": "",
          "type": "uint256"
        }
      ],
      "name": "providersAddress",
      "outputs": [
        {
          "internalType": "address",
          "name": "",
          "type": "address"
        }
      ],
      "stateMutability": "view",
      "type": "function"
    },
    {
      "inputs": [],
      "name": "removeLiquidity",
      "outputs": [],
      "stateMutability": "nonpayable",
      "type": "function"
    },
    {
      "inputs": [],
      "name": "renounceOwnership",
      "outputs": [],
      "stateMutability": "nonpayable",
      "type": "function"
    },
    {
      "inputs": [
        {
          "internalType": "address[]",
          "name": "_supportedAssets",
          "type": "address[]"
        },
        {
          "internalType": "uint256[]",
          "name": "rates",
          "type": "uint256[]"
        }
      ],
      "name": "setNewAsset",
      "outputs": [],
      "stateMutability": "nonpayable",
      "type": "function"
    },
    {
      "inputs": [],
      "name": "splitFee",
      "outputs": [],
      "stateMutability": "nonpayable",
      "type": "function"
    },
    {
      "inputs": [
        {
          "internalType": "address",
          "name": "",
          "type": "address"
        }
      ],
      "name": "supportedAssets",
      "outputs": [
        {
          "internalType": "bool",
          "name": "isSupported",
          "type": "bool"
        },
        {
          "internalType": "uint256",
          "name": "rate",
          "type": "uint256"
        }
      ],
      "stateMutability": "view",
      "type": "function"
    },
    {
      "inputs": [
        {
          "internalType": "address",
          "name": "asset",
          "type": "address"
        }
      ],
      "name": "swapERC20ForCelo",
      "outputs": [],
      "stateMutability": "payable",
      "type": "function"
    },
    {
      "inputs": [],
      "name": "swapfee",
      "outputs": [
        {
          "internalType": "uint256",
          "name": "",
          "type": "uint256"
        }
      ],
      "stateMutability": "view",
      "type": "function"
    },
    {
      "inputs": [],
      "name": "totalFeeReceived",
      "outputs": [
        {
          "internalType": "uint256",
          "name": "",
          "type": "uint256"
        }
      ],
      "stateMutability": "view",
      "type": "function"
    },
    {
      "inputs": [],
      "name": "totalLiquidity",
      "outputs": [
        {
          "internalType": "uint256",
          "name": "",
          "type": "uint256"
        }
      ],
      "stateMutability": "view",
      "type": "function"
    },
    {
      "inputs": [],
      "name": "totalProvider",
      "outputs": [
        {
          "internalType": "uint256",
          "name": "",
          "type": "uint256"
        }
      ],
      "stateMutability": "view",
      "type": "function"
    },
    {
      "inputs": [
        {
          "internalType": "address",
          "name": "newOwner",
          "type": "address"
        }
      ],
      "name": "transferOwnership",
      "outputs": [],
      "stateMutability": "nonpayable",
      "type": "function"
    }
  ],
  "transactionHash": "0x646c8fb2c2c50729187cb5fd62e727a71336647a39736573be561d03b6d74a35",
  "args": [
    "0x42cf7137f486783Fc3f19Fae7B52F06adef9fFd6"
  ],
  "numDeployments": 6,
  "solcInputHash": "25b81046a75083775c822be3e1da2e81",
  "bytecode": "0x60806040523480156200001157600080fd5b506040516200188f3803806200188f8339810160408190526200003491620002e3565b6200005a6200004b64010000000062000170810204565b64010000000062000174810204565b6001808055604080518281528082019091526000916020808301908036833750506040805160018082528183019092529293506000929150602080830190803683370190505090508282600081518110620000b957620000b962000315565b6020026020010190600160a060020a03169081600160a060020a0316815250506802b5e3af16b188000081600081518110620000f957620000f962000315565b602090810291909101015267016345785d8a0000600555600680546001810182556000919091527ff652222313e28459528d920b65115c16c04f3efc82aaedc97be59f3f377c0d3f018054600160a060020a03191633179055620001678282640100000000620001c4810204565b50505062000385565b3390565b60008054600160a060020a03838116600160a060020a0319831681178455604051919092169283917f8be0079c531659141344cd1fd0a4f28419497f9722a3daafe3b4186f6b6457e09190a35050565b805182511462000234576040517f08c379a000000000000000000000000000000000000000000000000000000000815260206004820152600f60248201527f4c656e677468206d69736d617463680000000000000000000000000000000000604482015260640160405180910390fd5b60005b8251811015620002de5760405180604001604052806001151581526020018383815181106200026a576200026a62000315565b6020026020010151815250600760008584815181106200028e576200028e62000315565b602090810291909101810151600160a060020a03168252818101929092526040016000208251815460ff191690151517815591015160019091015580620002d58162000344565b91505062000237565b505050565b600060208284031215620002f657600080fd5b8151600160a060020a03811681146200030e57600080fd5b9392505050565b7f4e487b7100000000000000000000000000000000000000000000000000000000600052603260045260246000fd5b6000600182016200037e577f4e487b7100000000000000000000000000000000000000000000000000000000600052601160045260246000fd5b5060010190565b6114fa80620003956000396000f3fe608060405260043610610110576000357c010000000000000000000000000000000000000000000000000000000090048063715018a6116100a7578063e61d9f0811610076578063e61d9f08146102d7578063e8078d94146102f7578063ee3eb74e146102ff578063f2fde38b1461036657600080fd5b8063715018a61461021f5780638da5cb5b14610234578063bd81579e14610266578063d443e132146102b757600080fd5b8063445400bb116100e3578063445400bb146101ca57806349805555146101df5780635f551387146101f457806367b9a2861461020a57600080fd5b80630784e3501461011557806315770f921461013e57806316834101146101545780633bc5de301461016a575b600080fd5b34801561012157600080fd5b5061012b60055481565b6040519081526020015b60405180910390f35b34801561014a57600080fd5b5061012b60025481565b34801561016057600080fd5b5061012b60045481565b34801561017657600080fd5b5061017f610386565b6040805195865260208087019590955285810193909352606080860192909252805160808601529283015160a08501529082015160c08401520151151560e082015261010001610135565b6101dd6101d83660046111db565b61041b565b005b3480156101eb57600080fd5b506101dd6107ec565b34801561020057600080fd5b5061012b60035481565b34801561021657600080fd5b506101dd61094b565b34801561022b57600080fd5b506101dd610b00565b34801561024057600080fd5b50600054600160a060020a03165b604051600160a060020a039091168152602001610135565b34801561027257600080fd5b506102a06102813660046111db565b6007602052600090815260409020805460019091015460ff9091169082565b604080519215158352602083019190915201610135565b3480156102c357600080fd5b506101dd6102d23660046112cc565b610b12565b3480156102e357600080fd5b5061024e6102f2366004611389565b610b28565b6101dd610b52565b34801561030b57600080fd5b5061034461031a3660046111db565b60086020526000908152604090208054600182015460028301546003909301549192909160ff1684565b6040805194855260208501939093529183015215156060820152608001610135565b34801561037257600080fd5b506101dd6103813660046111db565b610dbb565b6000806000806103b960405180608001604052806000815260200160008152602001600081526020016000151581525090565b50506002805460055460038054600454336000908152600860209081526040918290208251608081018452815481526001820154928101929092529788015491810191909152959092015460ff16151560608601529297919650919450909250565b333b156104455760405160e160020a637a665e8f0281523360048201526024015b60405180910390fd5b61044d610e4b565b600160a060020a0381166000908152600760209081526040918290208251808401909352805460ff161515808452600190910154918301919091526104c9576040517f3c4df43a000000000000000000000000000000000000000000000000000000008152600160a060020a038316600482015260240161043c565b6040517fdd62ed3e000000000000000000000000000000000000000000000000000000008152336004820152306024820152670de0b6b3a764000090600090600160a060020a0385169063dd62ed3e90604401602060405180830381865afa158015610539573d6000803e3d6000fd5b505050506040513d601f19601f8201168201806040525081019061055d91906113a2565b90508181118015610580575061057e60646105788385610ea7565b90610ebc565b155b6105cf5760405160e560020a62461bcd02815260206004820152601560248201527f496e76616c696420746f6b656e20726571756573740000000000000000000000604482015260640161043c565b6005543481111561064b5760405160e560020a62461bcd02815260206004820152602260248201527f496e73756666696369656e742076616c756520746f207061792073776170206660448201527f6565000000000000000000000000000000000000000000000000000000000000606482015260840161043c565b6000610665633b9aca0061065f8587610ea7565b90610ec8565b90506002548111156106b1576002546040517f02f90ce500000000000000000000000000000000000000000000000000000000815260048101919091526024810182905260440161043c565b6003546106be9083610ed4565b6003556002546106ce9082610ee0565b600255600160a060020a0386166323b872dd336106f3600054600160a060020a031690565b6040517c010000000000000000000000000000000000000000000000000000000063ffffffff8516028152600160a060020a03928316600482015291166024820152604481018690526064016020604051808303816000875af115801561075e573d6000803e3d6000fd5b505050506040513d601f19601f8201168201806040525081019061078291906113bb565b6107d15760405160e560020a62461bcd02815260206004820152600660248201527f4661696c65640000000000000000000000000000000000000000000000000000604482015260640161043c565b6107db3382610eec565b50505050506107e960018055565b50565b333b156108115760405160e160020a637a665e8f02815233600482015260240161043c565b336000908152600860205260409020546108705760405160e560020a62461bcd02815260206004820152600e60248201527f4e6f7420612070726f7669646572000000000000000000000000000000000000604482015260640161043c565b610878610e4b565b600354806108cb5760405160e560020a62461bcd02815260206004820181905260248201527f4665652063616e6e6f742062652073706c697420617420746869732074696d65604482015260640161043c565b60006003819055600654906108e08383610ea7565b905060005b8281101561093c57600060068281548110610902576109026113e4565b600091825260209091200154600160a060020a031690508015610929576109298184610eec565b508061093481611416565b9150506108e5565b5050505061094960018055565b565b333b156109705760405160e160020a637a665e8f02815233600482015260240161043c565b336000908152600860205260409020546109cf5760405160e560020a62461bcd02815260206004820152600e60248201527f4e6f7420612070726f7669646572000000000000000000000000000000000000604482015260640161043c565b6109d7610e4b565b336000818152600860208181526040808420815160808082018452825482526001830180548387015260028401805484870190815260038601805460ff8116151560608089019182528a519788018b528d8852878c018e815294519a88019a8b52905115159087019081529c8c5299909852925190945590519055915190559351151560ff199092169190911790556004805491610a748361142f565b90915550508051600254610a8791610ee0565b6002558051604082015160068054600092908110610aa757610aa76113e4565b6000918252602090912001805473ffffffffffffffffffffffffffffffffffffffff1916600160a060020a0392909216919091179055815130311015610aeb575030315b610af53382610eec565b505061094960018055565b610b08611011565b610949600061106e565b610b1a611011565b610b2482826110cb565b5050565b60068181548110610b3857600080fd5b600091825260209091200154600160a060020a0316905081565b333b15610b775760405160e160020a637a665e8f02815233600482015260240161043c565b60003411610bca5760405160e560020a62461bcd02815260206004820152601260248201527f496e73756666696369656e742076616c75650000000000000000000000000000604482015260640161043c565b33600090815260086020908152604080832081516080810183528154815260018201549381019390935260028101549183018290526003015460ff16151560608301819052919290919003610c86575060065460048054906000610c2d83611416565b9091555050600680546001810182556000919091527ff652222313e28459528d920b65115c16c04f3efc82aaedc97be59f3f377c0d3f01805473ffffffffffffffffffffffffffffffffffffffff191633179055610d01565b6000600160a060020a031660068281548110610ca457610ca46113e4565b600091825260209091200154600160a060020a031603610d01573360068281548110610cd257610cd26113e4565b9060005260206000200160006101000a815481600160a060020a030219169083600160a060020a031602179055505b604080516080810190915282518190610d1a9034610ed4565b81526020016000846020015111610d315742610d55565b6020840151610d5590610d4f6002610d494284610ee0565b90610ea7565b90610ed4565b815260208082018490526001604092830181905233600090815260088352839020845181559184015190820155908201516002808301919091556060909201516003909101805460ff191691151591909117905554610db49034610ed4565b6002555050565b610dc3611011565b600160a060020a038116610e425760405160e560020a62461bcd02815260206004820152602660248201527f4f776e61626c653a206e6577206f776e657220697320746865207a65726f206160448201527f6464726573730000000000000000000000000000000000000000000000000000606482015260840161043c565b6107e98161106e565b600260015403610ea05760405160e560020a62461bcd02815260206004820152601f60248201527f5265656e7472616e637947756172643a207265656e7472616e742063616c6c00604482015260640161043c565b6002600155565b6000610eb3828461145f565b90505b92915050565b6000610eb38284611473565b6000610eb38284611487565b6000610eb3828461149e565b6000610eb382846114b1565b3031811115610f405760405160e560020a62461bcd02815260206004820152601d60248201527f416464726573733a20696e73756666696369656e742062616c616e6365000000604482015260640161043c565b600082600160a060020a03168260405160006040518083038185875af1925050503d8060008114610f8d576040519150601f19603f3d011682016040523d82523d6000602084013e610f92565b606091505b505090508061100c5760405160e560020a62461bcd02815260206004820152603a60248201527f416464726573733a20756e61626c6520746f2073656e642076616c75652c207260448201527f6563697069656e74206d61792068617665207265766572746564000000000000606482015260840161043c565b505050565b600054600160a060020a031633146109495760405160e560020a62461bcd02815260206004820181905260248201527f4f776e61626c653a2063616c6c6572206973206e6f7420746865206f776e6572604482015260640161043c565b60008054600160a060020a0383811673ffffffffffffffffffffffffffffffffffffffff19831681178455604051919092169283917f8be0079c531659141344cd1fd0a4f28419497f9722a3daafe3b4186f6b6457e09190a35050565b805182511461111f5760405160e560020a62461bcd02815260206004820152600f60248201527f4c656e677468206d69736d617463680000000000000000000000000000000000604482015260640161043c565b60005b825181101561100c576040518060400160405280600115158152602001838381518110611151576111516113e4565b602002602001015181525060076000858481518110611172576111726113e4565b602090810291909101810151600160a060020a03168252818101929092526040016000208251815460ff1916901515178155910151600190910155806111b781611416565b915050611122565b8035600160a060020a03811681146111d657600080fd5b919050565b6000602082840312156111ed57600080fd5b610eb3826111bf565b60e060020a634e487b7102600052604160045260246000fd5b604051601f8201601f1916810167ffffffffffffffff81118282101715611238576112386111f6565b604052919050565b600067ffffffffffffffff82111561125a5761125a6111f6565b5060209081020190565b600082601f83011261127557600080fd5b8135602061128a61128583611240565b61120f565b828152918102840181019181810190868411156112a657600080fd5b8286015b848110156112c157803583529183019183016112aa565b509695505050505050565b600080604083850312156112df57600080fd5b823567ffffffffffffffff808211156112f757600080fd5b818501915085601f83011261130b57600080fd5b8135602061131b61128583611240565b8281529181028401810191818101908984111561133757600080fd5b948201945b8386101561135c5761134d866111bf565b8252948201949082019061133c565b9650508601359250508082111561137257600080fd5b5061137f85828601611264565b9150509250929050565b60006020828403121561139b57600080fd5b5035919050565b6000602082840312156113b457600080fd5b5051919050565b6000602082840312156113cd57600080fd5b815180151581146113dd57600080fd5b9392505050565b60e060020a634e487b7102600052603260045260246000fd5b60e060020a634e487b7102600052601160045260246000fd5b600060018201611428576114286113fd565b5060010190565b60008161143e5761143e6113fd565b506000190190565b60e060020a634e487b7102600052601260045260246000fd5b60008261146e5761146e611446565b500490565b60008261148257611482611446565b500690565b8082028115828204841417610eb657610eb66113fd565b80820180821115610eb657610eb66113fd565b81810381811115610eb657610eb66113fd56fea264697066735822122022c767e231feee982c045cd3795ec23862da98bab93f30fa6a2910404aa3a89d64736f6c63430008110033",
  "devdoc": {
    "kind": "dev",
    "methods": {
      "addLiquidity()": {
        "details": "We try to be fair with those that have previous liquidity in the pool by backdating the time liquidity was provided."
      },
      "owner()": {
        "details": "Returns the address of the current owner."
      },
      "removeLiquidity()": {
        "details": " If provider has no liquidity balance left in the pool, their provided time is reset."
      },
      "renounceOwnership()": {
        "details": "Leaves the contract without owner. It will not be possible to call `onlyOwner` functions anymore. Can only be called by the current owner. NOTE: Renouncing ownership will leave the contract without an owner, thereby removing any functionality that is only available to the owner."
      },
      "splitFee()": {
        "details": " Anyone can call this function to split fee among the providers."
      },
      "transferOwnership(address)": {
        "details": "Transfers ownership of the contract to a new account (`newOwner`). Can only be called by the current owner."
      }
    },
    "title": "Swap ERC20 for $CELO Anyone can be become a Celo or cUSD provider",
    "version": 1
  },
  "userdoc": {
    "kind": "user",
    "methods": {},
    "version": 1
  },
  "storageLayout": {
    "storage": [
      {
        "astId": 7,
        "contract": "contracts/SwapLab.sol:SwapLab",
        "label": "_owner",
        "offset": 0,
        "slot": "0",
        "type": "t_address"
      },
      {
        "astId": 123,
        "contract": "contracts/SwapLab.sol:SwapLab",
        "label": "_status",
        "offset": 0,
        "slot": "1",
        "type": "t_uint256"
      },
      {
        "astId": 1559,
        "contract": "contracts/SwapLab.sol:SwapLab",
        "label": "totalLiquidity",
        "offset": 0,
        "slot": "2",
        "type": "t_uint256"
      },
      {
        "astId": 1561,
        "contract": "contracts/SwapLab.sol:SwapLab",
        "label": "totalFeeReceived",
        "offset": 0,
        "slot": "3",
        "type": "t_uint256"
      },
      {
        "astId": 1563,
        "contract": "contracts/SwapLab.sol:SwapLab",
        "label": "totalProvider",
        "offset": 0,
        "slot": "4",
        "type": "t_uint256"
      },
      {
        "astId": 1565,
        "contract": "contracts/SwapLab.sol:SwapLab",
        "label": "swapfee",
        "offset": 0,
        "slot": "5",
        "type": "t_uint256"
      },
      {
        "astId": 1582,
        "contract": "contracts/SwapLab.sol:SwapLab",
        "label": "providersAddress",
        "offset": 0,
        "slot": "6",
        "type": "t_array(t_address)dyn_storage"
      },
      {
        "astId": 1587,
        "contract": "contracts/SwapLab.sol:SwapLab",
        "label": "supportedAssets",
        "offset": 0,
        "slot": "7",
        "type": "t_mapping(t_address,t_struct(SupportedAsset)1570_storage)"
      },
      {
        "astId": 1592,
        "contract": "contracts/SwapLab.sol:SwapLab",
        "label": "liqProviders",
        "offset": 0,
        "slot": "8",
        "type": "t_mapping(t_address,t_struct(Provider)1579_storage)"
      }
    ],
    "types": {
      "t_address": {
        "encoding": "inplace",
        "label": "address",
        "numberOfBytes": "20"
      },
      "t_array(t_address)dyn_storage": {
        "base": "t_address",
        "encoding": "dynamic_array",
        "label": "address[]",
        "numberOfBytes": "32"
      },
      "t_bool": {
        "encoding": "inplace",
        "label": "bool",
        "numberOfBytes": "1"
      },
      "t_mapping(t_address,t_struct(Provider)1579_storage)": {
        "encoding": "mapping",
        "key": "t_address",
        "label": "mapping(address => struct SwapLab.Provider)",
        "numberOfBytes": "32",
        "value": "t_struct(Provider)1579_storage"
      },
      "t_mapping(t_address,t_struct(SupportedAsset)1570_storage)": {
        "encoding": "mapping",
        "key": "t_address",
        "label": "mapping(address => struct SwapLab.SupportedAsset)",
        "numberOfBytes": "32",
        "value": "t_struct(SupportedAsset)1570_storage"
      },
      "t_struct(Provider)1579_storage": {
        "encoding": "inplace",
        "label": "struct SwapLab.Provider",
        "members": [
          {
            "astId": 1572,
            "contract": "contracts/SwapLab.sol:SwapLab",
            "label": "amount",
            "offset": 0,
            "slot": "0",
            "type": "t_uint256"
          },
          {
            "astId": 1574,
            "contract": "contracts/SwapLab.sol:SwapLab",
            "label": "timeProvided",
            "offset": 0,
            "slot": "1",
            "type": "t_uint256"
          },
          {
            "astId": 1576,
            "contract": "contracts/SwapLab.sol:SwapLab",
            "label": "position",
            "offset": 0,
            "slot": "2",
            "type": "t_uint256"
          },
          {
            "astId": 1578,
            "contract": "contracts/SwapLab.sol:SwapLab",
            "label": "isExist",
            "offset": 0,
            "slot": "3",
            "type": "t_bool"
          }
        ],
        "numberOfBytes": "128"
      },
      "t_struct(SupportedAsset)1570_storage": {
        "encoding": "inplace",
        "label": "struct SwapLab.SupportedAsset",
        "members": [
          {
            "astId": 1567,
            "contract": "contracts/SwapLab.sol:SwapLab",
            "label": "isSupported",
            "offset": 0,
            "slot": "0",
            "type": "t_bool"
          },
          {
            "astId": 1569,
            "contract": "contracts/SwapLab.sol:SwapLab",
            "label": "rate",
            "offset": 0,
            "slot": "1",
            "type": "t_uint256"
          }
        ],
        "numberOfBytes": "64"
      },
      "t_uint256": {
        "encoding": "inplace",
        "label": "uint256",
        "numberOfBytes": "32"
      }
    }
  }
}