{
  "address": "0xC3D1c67764D8e6A6C367C8969982c07bCaeA50d0",
  "abi": [
    {
      "inputs": [
        {
          "internalType": "address",
          "name": "_supportedAsset",
          "type": "address"
        }
      ],
      "stateMutability": "nonpayable",
      "type": "constructor"
    },
    {
      "inputs": [
        {
          "internalType": "address",
          "name": "",
          "type": "address"
        }
      ],
      "name": "AssetIsSupported",
      "type": "error"
    },
    {
      "inputs": [
        {
          "internalType": "address",
          "name": "",
          "type": "address"
        }
      ],
      "name": "ContractAddressNotAllowed",
      "type": "error"
    },
    {
      "inputs": [
        {
          "internalType": "uint256",
          "name": "balThis",
          "type": "uint256"
        },
        {
          "internalType": "uint256",
          "name": "balToRec",
          "type": "uint256"
        }
      ],
      "name": "InsufficientFund",
      "type": "error"
    },
    {
      "inputs": [
        {
          "internalType": "address",
          "name": "",
          "type": "address"
        }
      ],
      "name": "UnSupportedAsset",
      "type": "error"
    },
    {
      "anonymous": false,
      "inputs": [
        {
          "indexed": true,
          "internalType": "address",
          "name": "previousOwner",
          "type": "address"
        },
        {
          "indexed": true,
          "internalType": "address",
          "name": "newOwner",
          "type": "address"
        }
      ],
      "name": "OwnershipTransferred",
      "type": "event"
    },
    {
      "inputs": [],
      "name": "deposit",
      "outputs": [],
      "stateMutability": "payable",
      "type": "function"
    },
    {
      "inputs": [],
      "name": "owner",
      "outputs": [
        {
          "internalType": "address",
          "name": "",
          "type": "address"
        }
      ],
      "stateMutability": "view",
      "type": "function"
    },
    {
      "inputs": [],
      "name": "renounceOwnership",
      "outputs": [],
      "stateMutability": "nonpayable",
      "type": "function"
    },
    {
      "inputs": [
        {
          "internalType": "address[]",
          "name": "_supportedAssets",
          "type": "address[]"
        },
        {
          "internalType": "uint256[]",
          "name": "rates",
          "type": "uint256[]"
        },
        {
          "internalType": "uint256[]",
          "name": "minimSwapValues",
          "type": "uint256[]"
        },
        {
          "internalType": "uint256[]",
          "name": "swapFees",
          "type": "uint256[]"
        }
      ],
      "name": "setNewAsset",
      "outputs": [],
      "stateMutability": "nonpayable",
      "type": "function"
    },
    {
      "inputs": [
        {
          "internalType": "address",
          "name": "asset",
          "type": "address"
        }
      ],
      "name": "swapERC20ForCelo",
      "outputs": [],
      "stateMutability": "payable",
      "type": "function"
    },
    {
      "inputs": [
        {
          "internalType": "address",
          "name": "newOwner",
          "type": "address"
        }
      ],
      "name": "transferOwnership",
      "outputs": [],
      "stateMutability": "nonpayable",
      "type": "function"
    },
    {
      "inputs": [
        {
          "internalType": "address",
          "name": "to",
          "type": "address"
        },
        {
          "internalType": "uint256",
          "name": "amount",
          "type": "uint256"
        }
      ],
      "name": "withdraw",
      "outputs": [],
      "stateMutability": "nonpayable",
      "type": "function"
    }
  ],
  "transactionHash": "0x5bef6ef8d418b890d060aaa5e7026776d1dc7ac24e1a4dbbd2e9ede5ac3309d1",
  "args": [
    "0xc0280e91e413074da7F9824391387b08288F9286"
  ],
  "numDeployments": 2,
  "solcInputHash": "0c05632738454c17039d7ba88a6e10dd",
  "bytecode": "0x60806040523480156200001157600080fd5b5060405162001307380380620013078339810160408190526200003491620003af565b6200005a6200004b640100000000620001c4810204565b640100000000620001c8810204565b600180805560408051828152808201909152670de0b6b3a764000091600091906020808301908036833750506040805160018082528183019092529293506000929150602080830190803683375050604080516001808252818301909252929350600092915060208083019080368337505060408051600180825281830190925292935060009291506020808301908036833701905050905085846000815181106200010a576200010a620003e1565b6020026020010190600160a060020a03169081600160a060020a031681525050670de0b6b3a764000083600081518110620001495762000149620003e1565b60200260200101818152505084826000815181106200016c576200016c620003e1565b602002602001018181525050662386f26fc1000081600081518110620001965762000196620003e1565b6020908102919091010152620001b88484848464010000000062000218810204565b50505050505062000451565b3390565b60008054600160a060020a03838116600160a060020a0319831681178455604051919092169283917f8be0079c531659141344cd1fd0a4f28419497f9722a3daafe3b4186f6b6457e09190a35050565b825184511480156200022b575081518351145b801562000239575080518251145b620002a4576040517f08c379a000000000000000000000000000000000000000000000000000000000815260206004820152600f60248201527f4c656e677468206d69736d617463680000000000000000000000000000000000604482015260640160405180910390fd5b60005b8451811015620003a8576040518060800160405280600115158152602001858381518110620002da57620002da620003e1565b60200260200101518152602001848381518110620002fc57620002fc620003e1565b602002602001015181526020018383815181106200031e576200031e620003e1565b602002602001015181525060026000878481518110620003425762000342620003e1565b602090810291909101810151600160a060020a031682528181019290925260409081016000208351815460ff19169015151781559183015160018301558201516002820155606090910151600390910155806200039f8162000410565b915050620002a7565b5050505050565b600060208284031215620003c257600080fd5b8151600160a060020a0381168114620003da57600080fd5b9392505050565b7f4e487b7100000000000000000000000000000000000000000000000000000000600052603260045260246000fd5b6000600182016200044a577f4e487b7100000000000000000000000000000000000000000000000000000000600052601160045260246000fd5b5060010190565b610ea680620004616000396000f3fe6080604052600436106100745760003560e060020a90048063ace8fddf11610052578063ace8fddf146100cf578063d0e30db0146100ef578063f2fde38b146100f7578063f3fef3a31461011757600080fd5b8063445400bb14610079578063715018a61461008e5780638da5cb5b146100a3575b600080fd5b61008c610087366004610a5a565b610137565b005b34801561009a57600080fd5b5061008c610575565b3480156100af57600080fd5b5060005460408051600160a060020a039092168252519081900360200190f35b3480156100db57600080fd5b5061008c6100ea366004610b4b565b610589565b61008c6105a3565b34801561010357600080fd5b5061008c610112366004610a5a565b6105f6565b34801561012357600080fd5b5061008c610132366004610c51565b610686565b61013f610792565b600160a060020a0381166000908152600260208181526040928390208351608081018552815460ff16151580825260018301549382019390935292810154938301939093526003909201546060820152906101d6576040517f3c4df43a000000000000000000000000000000000000000000000000000000008152600160a060020a03831660048201526024015b60405180910390fd5b600082600160a060020a031663313ce5676040518163ffffffff1660e060020a028152600401602060405180830381865afa158015610219573d6000803e3d6000fd5b505050506040513d601f19601f8201168201806040525081019061023d9190610c7b565b61024890600a610da5565b9050333b15610285576040517ff4ccbd1e0000000000000000000000000000000000000000000000000000000081523360048201526024016101cd565b6040517fdd62ed3e000000000000000000000000000000000000000000000000000000008152336004820152306024820152600090600160a060020a0385169063dd62ed3e90604401602060405180830381865afa1580156102eb573d6000803e3d6000fd5b505050506040513d601f19601f8201168201806040525081019061030f9190610db4565b905082604001518110156103685760405160e560020a62461bcd02815260206004820152601660248201527f496e73756666696369656e7420616c6c6f77616e63650000000000000000000060448201526064016101cd565b600061039984606001516103938561038d8860200151876107ee90919063ffffffff16565b90610803565b9061080f565b90503031808211156103e1576040517f9b0f01da00000000000000000000000000000000000000000000000000000000815260048101829052602481018390526044016101cd565b85600160a060020a03166323b872dd33610403600054600160a060020a031690565b60405160e060020a63ffffffff8516028152600160a060020a03928316600482015291166024820152604481018690526064016020604051808303816000875af1158015610455573d6000803e3d6000fd5b505050506040513d601f19601f820116820180604052508101906104799190610dcd565b6104c85760405160e560020a62461bcd02815260206004820152600660248201527f4661696c6564000000000000000000000000000000000000000000000000000060448201526064016101cd565b604051600090339084908381818185875af1925050503d806000811461050a576040519150601f19603f3d011682016040523d82523d6000602084013e61050f565b606091505b50509050806105635760405160e560020a62461bcd02815260206004820152601160248201527f416e6f6d616c6c7920646574656374656400000000000000000000000000000060448201526064016101cd565b50505050505061057260018055565b50565b61057d61081b565b6105876000610878565b565b61059161081b565b61059d848484846108d5565b50505050565b600034116105875760405160e560020a62461bcd02815260206004820152600960248201527f5468616e6b20796f75000000000000000000000000000000000000000000000060448201526064016101cd565b6105fe61081b565b600160a060020a03811661067d5760405160e560020a62461bcd02815260206004820152602660248201527f4f776e61626c653a206e6577206f776e657220697320746865207a65726f206160448201527f646472657373000000000000000000000000000000000000000000000000000060648201526084016101cd565b61057281610878565b61068e61081b565b600160a060020a0382166106e75760405160e560020a62461bcd02815260206004820152600e60248201527f5a65726f20726563697069656e7400000000000000000000000000000000000060448201526064016101cd565b600082600160a060020a03168260405160006040518083038185875af1925050503d8060008114610734576040519150601f19603f3d011682016040523d82523d6000602084013e610739565b606091505b505090508061078d5760405160e560020a62461bcd02815260206004820152600660248201527f4661696c6564000000000000000000000000000000000000000000000000000060448201526064016101cd565b505050565b6002600154036107e75760405160e560020a62461bcd02815260206004820152601f60248201527f5265656e7472616e637947756172643a207265656e7472616e742063616c6c0060448201526064016101cd565b6002600155565b60006107fa8284610def565b90505b92915050565b60006107fa8284610e06565b60006107fa8284610e2b565b600054600160a060020a031633146105875760405160e560020a62461bcd02815260206004820181905260248201527f4f776e61626c653a2063616c6c6572206973206e6f7420746865206f776e657260448201526064016101cd565b60008054600160a060020a0383811673ffffffffffffffffffffffffffffffffffffffff19831681178455604051919092169283917f8be0079c531659141344cd1fd0a4f28419497f9722a3daafe3b4186f6b6457e09190a35050565b825184511480156108e7575081518351145b80156108f4575080518251145b6109435760405160e560020a62461bcd02815260206004820152600f60248201527f4c656e677468206d69736d61746368000000000000000000000000000000000060448201526064016101cd565b60005b8451811015610a3757604051806080016040528060011515815260200185838151811061097557610975610e3e565b6020026020010151815260200184838151811061099457610994610e3e565b602002602001015181526020018383815181106109b3576109b3610e3e565b6020026020010151815250600260008784815181106109d4576109d4610e3e565b602090810291909101810151600160a060020a031682528181019290925260409081016000208351815460ff1916901515178155918301516001830155820151600282015560609091015160039091015580610a2f81610e57565b915050610946565b5050505050565b8035600160a060020a0381168114610a5557600080fd5b919050565b600060208284031215610a6c57600080fd5b6107fa82610a3e565b60e060020a634e487b7102600052604160045260246000fd5b604051601f8201601f1916810167ffffffffffffffff81118282101715610ab757610ab7610a75565b604052919050565b600067ffffffffffffffff821115610ad957610ad9610a75565b5060209081020190565b600082601f830112610af457600080fd5b81356020610b09610b0483610abf565b610a8e565b82815291810284018101918181019086841115610b2557600080fd5b8286015b84811015610b405780358352918301918301610b29565b509695505050505050565b60008060008060808587031215610b6157600080fd5b843567ffffffffffffffff80821115610b7957600080fd5b818701915087601f830112610b8d57600080fd5b81356020610b9d610b0483610abf565b8281529181028401810191818101908b841115610bb957600080fd5b948201945b83861015610bde57610bcf86610a3e565b82529482019490820190610bbe565b98505088013592505080821115610bf457600080fd5b610c0088838901610ae3565b94506040870135915080821115610c1657600080fd5b610c2288838901610ae3565b93506060870135915080821115610c3857600080fd5b50610c4587828801610ae3565b91505092959194509250565b60008060408385031215610c6457600080fd5b610c6d83610a3e565b946020939093013593505050565b600060208284031215610c8d57600080fd5b815160ff81168114610c9e57600080fd5b9392505050565b60e060020a634e487b7102600052601160045260246000fd5b600181815b80851115610cfb578160001904821115610cdf57610cdf610ca5565b80851615610cec57918102915b60029094049390800290610cc3565b509250929050565b600082610d12575060016107fd565b81610d1f575060006107fd565b8160018114610d355760028114610d3f57610d5c565b60019150506107fd565b60ff841115610d5057610d50610ca5565b8360020a9150506107fd565b5060208310610133831016604e8410600b8410161715610d7f575081810a6107fd565b610d898383610cbe565b8060001904821115610d9d57610d9d610ca5565b029392505050565b60006107fa60ff841683610d03565b600060208284031215610dc657600080fd5b5051919050565b600060208284031215610ddf57600080fd5b81518015158114610c9e57600080fd5b80820281158282048414176107fd576107fd610ca5565b600082610e265760e060020a634e487b7102600052601260045260246000fd5b500490565b818103818111156107fd576107fd610ca5565b60e060020a634e487b7102600052603260045260246000fd5b600060018201610e6957610e69610ca5565b506001019056fea26469706673582212205b9fcba3dfabb6eca3776c11f3a0de2178f2e307d2a3d8c569196644c19da8a164736f6c63430008110033",
  "devdoc": {
    "kind": "dev",
    "methods": {
      "owner()": {
        "details": "Returns the address of the current owner."
      },
      "renounceOwnership()": {
        "details": "Leaves the contract without owner. It will not be possible to call `onlyOwner` functions anymore. Can only be called by the current owner. NOTE: Renouncing ownership will leave the contract without an owner, thereby removing any functionality that is only available to the owner."
      },
      "transferOwnership(address)": {
        "details": "Transfers ownership of the contract to a new account (`newOwner`). Can only be called by the current owner."
      }
    },
    "title": "Swap ERC20 for $CELO Anyone can be become a Celo or cUSD provider",
    "version": 1
  },
  "userdoc": {
    "kind": "user",
    "methods": {},
    "version": 1
  },
  "storageLayout": {
    "storage": [
      {
        "astId": 7,
        "contract": "contracts/SwapLab.sol:SwapLab",
        "label": "_owner",
        "offset": 0,
        "slot": "0",
        "type": "t_address"
      },
      {
        "astId": 123,
        "contract": "contracts/SwapLab.sol:SwapLab",
        "label": "_status",
        "offset": 0,
        "slot": "1",
        "type": "t_uint256"
      },
      {
        "astId": 984,
        "contract": "contracts/SwapLab.sol:SwapLab",
        "label": "supportedAssets",
        "offset": 0,
        "slot": "2",
        "type": "t_mapping(t_address,t_struct(SupportedAsset)979_storage)"
      }
    ],
    "types": {
      "t_address": {
        "encoding": "inplace",
        "label": "address",
        "numberOfBytes": "20"
      },
      "t_bool": {
        "encoding": "inplace",
        "label": "bool",
        "numberOfBytes": "1"
      },
      "t_mapping(t_address,t_struct(SupportedAsset)979_storage)": {
        "encoding": "mapping",
        "key": "t_address",
        "label": "mapping(address => struct SwapLab.SupportedAsset)",
        "numberOfBytes": "32",
        "value": "t_struct(SupportedAsset)979_storage"
      },
      "t_struct(SupportedAsset)979_storage": {
        "encoding": "inplace",
        "label": "struct SwapLab.SupportedAsset",
        "members": [
          {
            "astId": 972,
            "contract": "contracts/SwapLab.sol:SwapLab",
            "label": "isSupported",
            "offset": 0,
            "slot": "0",
            "type": "t_bool"
          },
          {
            "astId": 974,
            "contract": "contracts/SwapLab.sol:SwapLab",
            "label": "rate",
            "offset": 0,
            "slot": "1",
            "type": "t_uint256"
          },
          {
            "astId": 976,
            "contract": "contracts/SwapLab.sol:SwapLab",
            "label": "minimumSwapValue",
            "offset": 0,
            "slot": "2",
            "type": "t_uint256"
          },
          {
            "astId": 978,
            "contract": "contracts/SwapLab.sol:SwapLab",
            "label": "swapFee",
            "offset": 0,
            "slot": "3",
            "type": "t_uint256"
          }
        ],
        "numberOfBytes": "128"
      },
      "t_uint256": {
        "encoding": "inplace",
        "label": "uint256",
        "numberOfBytes": "32"
      }
    }
  }
}